{
  "contractName": "CarbonCredits",
  "abi": [
    {
      "inputs": [],
      "stateMutability": "nonpayable",
      "type": "constructor"
    },
    {
      "anonymous": false,
      "inputs": [
        {
          "indexed": true,
          "internalType": "address",
          "name": "owner",
          "type": "address"
        },
        {
          "indexed": true,
          "internalType": "address",
          "name": "spender",
          "type": "address"
        },
        {
          "indexed": false,
          "internalType": "uint256",
          "name": "value",
          "type": "uint256"
        }
      ],
      "name": "Approval",
      "type": "event"
    },
    {
      "anonymous": false,
      "inputs": [
        {
          "indexed": true,
          "internalType": "bytes32",
          "name": "role",
          "type": "bytes32"
        },
        {
          "indexed": true,
          "internalType": "bytes32",
          "name": "previousAdminRole",
          "type": "bytes32"
        },
        {
          "indexed": true,
          "internalType": "bytes32",
          "name": "newAdminRole",
          "type": "bytes32"
        }
      ],
      "name": "RoleAdminChanged",
      "type": "event"
    },
    {
      "anonymous": false,
      "inputs": [
        {
          "indexed": true,
          "internalType": "bytes32",
          "name": "role",
          "type": "bytes32"
        },
        {
          "indexed": true,
          "internalType": "address",
          "name": "account",
          "type": "address"
        },
        {
          "indexed": true,
          "internalType": "address",
          "name": "sender",
          "type": "address"
        }
      ],
      "name": "RoleGranted",
      "type": "event"
    },
    {
      "anonymous": false,
      "inputs": [
        {
          "indexed": true,
          "internalType": "bytes32",
          "name": "role",
          "type": "bytes32"
        },
        {
          "indexed": true,
          "internalType": "address",
          "name": "account",
          "type": "address"
        },
        {
          "indexed": true,
          "internalType": "address",
          "name": "sender",
          "type": "address"
        }
      ],
      "name": "RoleRevoked",
      "type": "event"
    },
    {
      "anonymous": false,
      "inputs": [
        {
          "indexed": true,
          "internalType": "address",
          "name": "from",
          "type": "address"
        },
        {
          "indexed": true,
          "internalType": "address",
          "name": "to",
          "type": "address"
        },
        {
          "indexed": false,
          "internalType": "uint256",
          "name": "value",
          "type": "uint256"
        }
      ],
      "name": "Transfer",
      "type": "event"
    },
    {
      "inputs": [],
      "name": "DEFAULT_ADMIN_ROLE",
      "outputs": [
        {
          "internalType": "bytes32",
          "name": "",
          "type": "bytes32"
        }
      ],
      "stateMutability": "view",
      "type": "function"
    },
    {
      "inputs": [],
      "name": "MINTER_ROLE",
      "outputs": [
        {
          "internalType": "bytes32",
          "name": "",
          "type": "bytes32"
        }
      ],
      "stateMutability": "view",
      "type": "function"
    },
    {
      "inputs": [
        {
          "internalType": "address",
          "name": "owner",
          "type": "address"
        },
        {
          "internalType": "address",
          "name": "spender",
          "type": "address"
        }
      ],
      "name": "allowance",
      "outputs": [
        {
          "internalType": "uint256",
          "name": "",
          "type": "uint256"
        }
      ],
      "stateMutability": "view",
      "type": "function"
    },
    {
      "inputs": [
        {
          "internalType": "address",
          "name": "spender",
          "type": "address"
        },
        {
          "internalType": "uint256",
          "name": "amount",
          "type": "uint256"
        }
      ],
      "name": "approve",
      "outputs": [
        {
          "internalType": "bool",
          "name": "",
          "type": "bool"
        }
      ],
      "stateMutability": "nonpayable",
      "type": "function"
    },
    {
      "inputs": [
        {
          "internalType": "address",
          "name": "account",
          "type": "address"
        }
      ],
      "name": "balanceOf",
      "outputs": [
        {
          "internalType": "uint256",
          "name": "",
          "type": "uint256"
        }
      ],
      "stateMutability": "view",
      "type": "function"
    },
    {
      "inputs": [
        {
          "internalType": "uint256",
          "name": "amount",
          "type": "uint256"
        }
      ],
      "name": "burn",
      "outputs": [],
      "stateMutability": "nonpayable",
      "type": "function"
    },
    {
      "inputs": [
        {
          "internalType": "address",
          "name": "",
          "type": "address"
        }
      ],
      "name": "burnAmounts",
      "outputs": [
        {
          "internalType": "uint256",
          "name": "",
          "type": "uint256"
        }
      ],
      "stateMutability": "view",
      "type": "function"
    },
    {
      "inputs": [
        {
          "internalType": "address",
          "name": "account",
          "type": "address"
        },
        {
          "internalType": "uint256",
          "name": "amount",
          "type": "uint256"
        }
      ],
      "name": "burnFrom",
      "outputs": [],
      "stateMutability": "nonpayable",
      "type": "function"
    },
    {
      "inputs": [],
      "name": "decimals",
      "outputs": [
        {
          "internalType": "uint8",
          "name": "",
          "type": "uint8"
        }
      ],
      "stateMutability": "view",
      "type": "function"
    },
    {
      "inputs": [
        {
          "internalType": "address",
          "name": "spender",
          "type": "address"
        },
        {
          "internalType": "uint256",
          "name": "subtractedValue",
          "type": "uint256"
        }
      ],
      "name": "decreaseAllowance",
      "outputs": [
        {
          "internalType": "bool",
          "name": "",
          "type": "bool"
        }
      ],
      "stateMutability": "nonpayable",
      "type": "function"
    },
    {
      "inputs": [
        {
          "internalType": "bytes32",
          "name": "role",
          "type": "bytes32"
        }
      ],
      "name": "getRoleAdmin",
      "outputs": [
        {
          "internalType": "bytes32",
          "name": "",
          "type": "bytes32"
        }
      ],
      "stateMutability": "view",
      "type": "function"
    },
    {
      "inputs": [
        {
          "internalType": "bytes32",
          "name": "role",
          "type": "bytes32"
        },
        {
          "internalType": "address",
          "name": "account",
          "type": "address"
        }
      ],
      "name": "grantRole",
      "outputs": [],
      "stateMutability": "nonpayable",
      "type": "function"
    },
    {
      "inputs": [
        {
          "internalType": "bytes32",
          "name": "role",
          "type": "bytes32"
        },
        {
          "internalType": "address",
          "name": "account",
          "type": "address"
        }
      ],
      "name": "hasRole",
      "outputs": [
        {
          "internalType": "bool",
          "name": "",
          "type": "bool"
        }
      ],
      "stateMutability": "view",
      "type": "function"
    },
    {
      "inputs": [
        {
          "internalType": "address",
          "name": "spender",
          "type": "address"
        },
        {
          "internalType": "uint256",
          "name": "addedValue",
          "type": "uint256"
        }
      ],
      "name": "increaseAllowance",
      "outputs": [
        {
          "internalType": "bool",
          "name": "",
          "type": "bool"
        }
      ],
      "stateMutability": "nonpayable",
      "type": "function"
    },
    {
      "inputs": [],
      "name": "name",
      "outputs": [
        {
          "internalType": "string",
          "name": "",
          "type": "string"
        }
      ],
      "stateMutability": "view",
      "type": "function"
    },
    {
      "inputs": [
        {
          "internalType": "bytes32",
          "name": "role",
          "type": "bytes32"
        },
        {
          "internalType": "address",
          "name": "account",
          "type": "address"
        }
      ],
      "name": "renounceRole",
      "outputs": [],
      "stateMutability": "nonpayable",
      "type": "function"
    },
    {
      "inputs": [
        {
          "internalType": "bytes32",
          "name": "role",
          "type": "bytes32"
        },
        {
          "internalType": "address",
          "name": "account",
          "type": "address"
        }
      ],
      "name": "revokeRole",
      "outputs": [],
      "stateMutability": "nonpayable",
      "type": "function"
    },
    {
      "inputs": [
        {
          "internalType": "bytes4",
          "name": "interfaceId",
          "type": "bytes4"
        }
      ],
      "name": "supportsInterface",
      "outputs": [
        {
          "internalType": "bool",
          "name": "",
          "type": "bool"
        }
      ],
      "stateMutability": "view",
      "type": "function"
    },
    {
      "inputs": [],
      "name": "symbol",
      "outputs": [
        {
          "internalType": "string",
          "name": "",
          "type": "string"
        }
      ],
      "stateMutability": "view",
      "type": "function"
    },
    {
      "inputs": [],
      "name": "totalSupply",
      "outputs": [
        {
          "internalType": "uint256",
          "name": "",
          "type": "uint256"
        }
      ],
      "stateMutability": "view",
      "type": "function"
    },
    {
      "inputs": [
        {
          "internalType": "address",
          "name": "to",
          "type": "address"
        },
        {
          "internalType": "uint256",
          "name": "amount",
          "type": "uint256"
        }
      ],
      "name": "transfer",
      "outputs": [
        {
          "internalType": "bool",
          "name": "",
          "type": "bool"
        }
      ],
      "stateMutability": "nonpayable",
      "type": "function"
    },
    {
      "inputs": [
        {
          "internalType": "address",
          "name": "from",
          "type": "address"
        },
        {
          "internalType": "address",
          "name": "to",
          "type": "address"
        },
        {
          "internalType": "uint256",
          "name": "amount",
          "type": "uint256"
        }
      ],
      "name": "transferFrom",
      "outputs": [
        {
          "internalType": "bool",
          "name": "",
          "type": "bool"
        }
      ],
      "stateMutability": "nonpayable",
      "type": "function"
    },
    {
      "inputs": [
        {
          "internalType": "address",
          "name": "to",
          "type": "address"
        },
        {
          "internalType": "uint256",
          "name": "amount",
          "type": "uint256"
        }
      ],
      "name": "mint",
      "outputs": [],
      "stateMutability": "nonpayable",
      "type": "function"
    },
    {
      "inputs": [
        {
          "internalType": "uint256",
          "name": "amount",
          "type": "uint256"
        }
      ],
      "name": "burnToken",
      "outputs": [],
      "stateMutability": "nonpayable",
      "type": "function"
    },
    {
      "inputs": [
        {
          "internalType": "address",
          "name": "check",
          "type": "address"
        }
      ],
      "name": "getBurnAmount",
      "outputs": [
        {
          "internalType": "uint256",
          "name": "",
          "type": "uint256"
        }
      ],
      "stateMutability": "view",
      "type": "function"
    },
    {
      "inputs": [
        {
          "internalType": "address",
          "name": "_member",
          "type": "address"
        }
      ],
      "name": "addMinter",
      "outputs": [],
      "stateMutability": "nonpayable",
      "type": "function"
    },
    {
      "inputs": [
        {
          "internalType": "address",
          "name": "_member",
          "type": "address"
        }
      ],
      "name": "removeMinter",
      "outputs": [],
      "stateMutability": "nonpayable",
      "type": "function"
    },
    {
      "inputs": [
        {
          "internalType": "address",
          "name": "_member",
          "type": "address"
        }
      ],
      "name": "addAdmin",
      "outputs": [],
      "stateMutability": "nonpayable",
      "type": "function"
    },
    {
      "inputs": [
        {
          "internalType": "address",
          "name": "_member",
          "type": "address"
        }
      ],
      "name": "removeAdmin",
      "outputs": [],
      "stateMutability": "nonpayable",
      "type": "function"
    }
  ],
  "bytecode": "0x60806040523480156200001157600080fd5b506040518060400160405280600d81526020017f436172626f6e43726564697473000000000000000000000000000000000000008152506040518060400160405280600281526020017f434300000000000000000000000000000000000000000000000000000000000081525081600390805190602001906200009692919062000264565b508060049080519060200190620000af92919062000264565b505050620000c76000801b33620000ff60201b60201c565b620000f97f9f2df0fed2c77648de5860a4cc508cd0818c85b8b8a1ab4ceeef8d981c8956a633620000ff60201b60201c565b62000379565b620001118282620001f160201b60201c565b620001ed5760016005600084815260200190815260200160002060000160008373ffffffffffffffffffffffffffffffffffffffff1673ffffffffffffffffffffffffffffffffffffffff16815260200190815260200160002060006101000a81548160ff021916908315150217905550620001926200025c60201b60201c565b73ffffffffffffffffffffffffffffffffffffffff168173ffffffffffffffffffffffffffffffffffffffff16837f2f8788117e7eff1d82e926ec794901d17c78024a50270940304540a733656f0d60405160405180910390a45b5050565b60006005600084815260200190815260200160002060000160008373ffffffffffffffffffffffffffffffffffffffff1673ffffffffffffffffffffffffffffffffffffffff16815260200190815260200160002060009054906101000a900460ff16905092915050565b600033905090565b828054620002729062000314565b90600052602060002090601f016020900481019282620002965760008555620002e2565b82601f10620002b157805160ff1916838001178555620002e2565b82800160010185558215620002e2579182015b82811115620002e1578251825591602001919060010190620002c4565b5b509050620002f19190620002f5565b5090565b5b8082111562000310576000816000905550600101620002f6565b5090565b600060028204905060018216806200032d57607f821691505b602082108114156200034457620003436200034a565b5b50919050565b7f4e487b7100000000000000000000000000000000000000000000000000000000600052602260045260246000fd5b6127a180620003896000396000f3fe608060405234801561001057600080fd5b50600436106101cf5760003560e01c80637048027511610104578063a217fddf116100a2578063d539139311610071578063d539139314610562578063d547741f14610580578063dd62ed3e1461059c578063fff1931c146105cc576101cf565b8063a217fddf146104b4578063a457c2d7146104d2578063a9059cbb14610502578063d33e608314610532576101cf565b80637b47ec1a116100de5780637b47ec1a1461042e57806391d148541461044a57806395d89b411461047a578063983b2d5614610498576101cf565b806370480275146103c657806370a08231146103e257806379cc679014610412576101cf565b80632f2ff15d1161017157806336568abe1161014b57806336568abe14610342578063395093511461035e57806340c10f191461038e57806342966c68146103aa576101cf565b80632f2ff15d146102ec5780633092afd514610308578063313ce56714610324576101cf565b80631785f53c116101ad5780631785f53c1461025257806318160ddd1461026e57806323b872dd1461028c578063248a9ca3146102bc576101cf565b806301ffc9a7146101d457806306fdde0314610204578063095ea7b314610222575b600080fd5b6101ee60048036038101906101e99190611c99565b6105fc565b6040516101fb91906122a1565b60405180910390f35b61020c610676565b60405161021991906122d7565b60405180910390f35b61023c60048036038101906102379190611bf8565b610708565b60405161024991906122a1565b60405180910390f35b61026c60048036038101906102679190611b44565b61072b565b005b610276610749565b6040516102839190612479565b60405180910390f35b6102a660048036038101906102a19190611ba9565b610753565b6040516102b391906122a1565b60405180910390f35b6102d660048036038101906102d19190611c34565b610782565b6040516102e391906122bc565b60405180910390f35b61030660048036038101906103019190611c5d565b6107a2565b005b610322600480360381019061031d9190611b44565b6107c3565b005b61032c6107fe565b6040516103399190612494565b60405180910390f35b61035c60048036038101906103579190611c5d565b610807565b005b61037860048036038101906103739190611bf8565b61088a565b60405161038591906122a1565b60405180910390f35b6103a860048036038101906103a39190611bf8565b6108c1565b005b6103c460048036038101906103bf9190611cc2565b6108fa565b005b6103e060048036038101906103db9190611b44565b61090e565b005b6103fc60048036038101906103f79190611b44565b61092c565b6040516104099190612479565b60405180910390f35b61042c60048036038101906104279190611bf8565b610974565b005b61044860048036038101906104439190611cc2565b610994565b005b610464600480360381019061045f9190611c5d565b6109f7565b60405161047191906122a1565b60405180910390f35b610482610a62565b60405161048f91906122d7565b60405180910390f35b6104b260048036038101906104ad9190611b44565b610af4565b005b6104bc610b2f565b6040516104c991906122bc565b60405180910390f35b6104ec60048036038101906104e79190611bf8565b610b36565b6040516104f991906122a1565b60405180910390f35b61051c60048036038101906105179190611bf8565b610bad565b60405161052991906122a1565b60405180910390f35b61054c60048036038101906105479190611b44565b610bd0565b6040516105599190612479565b60405180910390f35b61056a610c19565b60405161057791906122bc565b60405180910390f35b61059a60048036038101906105959190611c5d565b610c3d565b005b6105b660048036038101906105b19190611b6d565b610c5e565b6040516105c39190612479565b60405180910390f35b6105e660048036038101906105e19190611b44565b610ce5565b6040516105f39190612479565b60405180910390f35b60007f7965db0b000000000000000000000000000000000000000000000000000000007bffffffffffffffffffffffffffffffffffffffffffffffffffffffff1916827bffffffffffffffffffffffffffffffffffffffffffffffffffffffff1916148061066f575061066e82610cfd565b5b9050919050565b6060600380546106859061266e565b80601f01602080910402602001604051908101604052809291908181526020018280546106b19061266e565b80156106fe5780601f106106d3576101008083540402835291602001916106fe565b820191906000526020600020905b8154815290600101906020018083116106e157829003601f168201915b5050505050905090565b600080610713610d67565b9050610720818585610d6f565b600191505092915050565b6000801b61073881610f3a565b6107456000801b83610f4e565b5050565b6000600254905090565b60008061075e610d67565b905061076b858285611030565b6107768585856110bc565b60019150509392505050565b600060056000838152602001908152602001600020600101549050919050565b6107ab82610782565b6107b481610f3a565b6107be8383611334565b505050565b6000801b6107d081610f3a565b6107fa7f9f2df0fed2c77648de5860a4cc508cd0818c85b8b8a1ab4ceeef8d981c8956a683610f4e565b5050565b60006012905090565b61080f610d67565b73ffffffffffffffffffffffffffffffffffffffff168173ffffffffffffffffffffffffffffffffffffffff161461087c576040517f08c379a000000000000000000000000000000000000000000000000000000000815260040161087390612439565b60405180910390fd5b6108868282610f4e565b5050565b600080610895610d67565b90506108b68185856108a78589610c5e565b6108b191906124d6565b610d6f565b600191505092915050565b7f9f2df0fed2c77648de5860a4cc508cd0818c85b8b8a1ab4ceeef8d981c8956a66108eb81610f3a565b6108f58383611415565b505050565b61090b610905610d67565b8261156c565b50565b6000801b61091b81610f3a565b6109286000801b83611334565b5050565b60008060008373ffffffffffffffffffffffffffffffffffffffff1673ffffffffffffffffffffffffffffffffffffffff168152602001908152602001600020549050919050565b61098682610980610d67565b83611030565b610990828261156c565b5050565b61099e338261156c565b80600660003373ffffffffffffffffffffffffffffffffffffffff1673ffffffffffffffffffffffffffffffffffffffff16815260200190815260200160002060008282546109ed91906124d6565b9250508190555050565b60006005600084815260200190815260200160002060000160008373ffffffffffffffffffffffffffffffffffffffff1673ffffffffffffffffffffffffffffffffffffffff16815260200190815260200160002060009054906101000a900460ff16905092915050565b606060048054610a719061266e565b80601f0160208091040260200160405190810160405280929190818152602001828054610a9d9061266e565b8015610aea5780601f10610abf57610100808354040283529160200191610aea565b820191906000526020600020905b815481529060010190602001808311610acd57829003601f168201915b5050505050905090565b6000801b610b0181610f3a565b610b2b7f9f2df0fed2c77648de5860a4cc508cd0818c85b8b8a1ab4ceeef8d981c8956a683611334565b5050565b6000801b81565b600080610b41610d67565b90506000610b4f8286610c5e565b905083811015610b94576040517f08c379a0000000000000000000000000000000000000000000000000000000008152600401610b8b90612419565b60405180910390fd5b610ba18286868403610d6f565b60019250505092915050565b600080610bb8610d67565b9050610bc58185856110bc565b600191505092915050565b6000600660008373ffffffffffffffffffffffffffffffffffffffff1673ffffffffffffffffffffffffffffffffffffffff168152602001908152602001600020549050919050565b7f9f2df0fed2c77648de5860a4cc508cd0818c85b8b8a1ab4ceeef8d981c8956a681565b610c4682610782565b610c4f81610f3a565b610c598383610f4e565b505050565b6000600160008473ffffffffffffffffffffffffffffffffffffffff1673ffffffffffffffffffffffffffffffffffffffff16815260200190815260200160002060008373ffffffffffffffffffffffffffffffffffffffff1673ffffffffffffffffffffffffffffffffffffffff16815260200190815260200160002054905092915050565b60066020528060005260406000206000915090505481565b60007f01ffc9a7000000000000000000000000000000000000000000000000000000007bffffffffffffffffffffffffffffffffffffffffffffffffffffffff1916827bffffffffffffffffffffffffffffffffffffffffffffffffffffffff1916149050919050565b600033905090565b600073ffffffffffffffffffffffffffffffffffffffff168373ffffffffffffffffffffffffffffffffffffffff161415610ddf576040517f08c379a0000000000000000000000000000000000000000000000000000000008152600401610dd6906123f9565b60405180910390fd5b600073ffffffffffffffffffffffffffffffffffffffff168273ffffffffffffffffffffffffffffffffffffffff161415610e4f576040517f08c379a0000000000000000000000000000000000000000000000000000000008152600401610e4690612359565b60405180910390fd5b80600160008573ffffffffffffffffffffffffffffffffffffffff1673ffffffffffffffffffffffffffffffffffffffff16815260200190815260200160002060008473ffffffffffffffffffffffffffffffffffffffff1673ffffffffffffffffffffffffffffffffffffffff168152602001908152602001600020819055508173ffffffffffffffffffffffffffffffffffffffff168373ffffffffffffffffffffffffffffffffffffffff167f8c5be1e5ebec7d5bd14f71427d1e84f3dd0314c0f7b2291e5b200ac8c7c3b92583604051610f2d9190612479565b60405180910390a3505050565b610f4b81610f46610d67565b61173a565b50565b610f5882826109f7565b1561102c5760006005600084815260200190815260200160002060000160008373ffffffffffffffffffffffffffffffffffffffff1673ffffffffffffffffffffffffffffffffffffffff16815260200190815260200160002060006101000a81548160ff021916908315150217905550610fd1610d67565b73ffffffffffffffffffffffffffffffffffffffff168173ffffffffffffffffffffffffffffffffffffffff16837ff6391f5c32d9c69d2a47ea670b442974b53935d1edc7fd64eb21e047a839171b60405160405180910390a45b5050565b600061103c8484610c5e565b90507fffffffffffffffffffffffffffffffffffffffffffffffffffffffffffffffff81146110b657818110156110a8576040517f08c379a000000000000000000000000000000000000000000000000000000000815260040161109f90612379565b60405180910390fd5b6110b58484848403610d6f565b5b50505050565b600073ffffffffffffffffffffffffffffffffffffffff168373ffffffffffffffffffffffffffffffffffffffff16141561112c576040517f08c379a0000000000000000000000000000000000000000000000000000000008152600401611123906123d9565b60405180910390fd5b600073ffffffffffffffffffffffffffffffffffffffff168273ffffffffffffffffffffffffffffffffffffffff16141561119c576040517f08c379a000000000000000000000000000000000000000000000000000000000815260040161119390612319565b60405180910390fd5b6111a78383836117bf565b60008060008573ffffffffffffffffffffffffffffffffffffffff1673ffffffffffffffffffffffffffffffffffffffff1681526020019081526020016000205490508181101561122d576040517f08c379a000000000000000000000000000000000000000000000000000000000815260040161122490612399565b60405180910390fd5b8181036000808673ffffffffffffffffffffffffffffffffffffffff1673ffffffffffffffffffffffffffffffffffffffff16815260200190815260200160002081905550816000808573ffffffffffffffffffffffffffffffffffffffff1673ffffffffffffffffffffffffffffffffffffffff168152602001908152602001600020600082825401925050819055508273ffffffffffffffffffffffffffffffffffffffff168473ffffffffffffffffffffffffffffffffffffffff167fddf252ad1be2c89b69c2b068fc378daa952ba7f163c4a11628f55a4df523b3ef8460405161131b9190612479565b60405180910390a361132e8484846117c4565b50505050565b61133e82826109f7565b6114115760016005600084815260200190815260200160002060000160008373ffffffffffffffffffffffffffffffffffffffff1673ffffffffffffffffffffffffffffffffffffffff16815260200190815260200160002060006101000a81548160ff0219169083151502179055506113b6610d67565b73ffffffffffffffffffffffffffffffffffffffff168173ffffffffffffffffffffffffffffffffffffffff16837f2f8788117e7eff1d82e926ec794901d17c78024a50270940304540a733656f0d60405160405180910390a45b5050565b600073ffffffffffffffffffffffffffffffffffffffff168273ffffffffffffffffffffffffffffffffffffffff161415611485576040517f08c379a000000000000000000000000000000000000000000000000000000000815260040161147c90612459565b60405180910390fd5b611491600083836117bf565b80600260008282546114a391906124d6565b92505081905550806000808473ffffffffffffffffffffffffffffffffffffffff1673ffffffffffffffffffffffffffffffffffffffff168152602001908152602001600020600082825401925050819055508173ffffffffffffffffffffffffffffffffffffffff16600073ffffffffffffffffffffffffffffffffffffffff167fddf252ad1be2c89b69c2b068fc378daa952ba7f163c4a11628f55a4df523b3ef836040516115549190612479565b60405180910390a3611568600083836117c4565b5050565b600073ffffffffffffffffffffffffffffffffffffffff168273ffffffffffffffffffffffffffffffffffffffff1614156115dc576040517f08c379a00000000000000000000000000000000000000000000000000000000081526004016115d3906123b9565b60405180910390fd5b6115e8826000836117bf565b60008060008473ffffffffffffffffffffffffffffffffffffffff1673ffffffffffffffffffffffffffffffffffffffff1681526020019081526020016000205490508181101561166e576040517f08c379a000000000000000000000000000000000000000000000000000000000815260040161166590612339565b60405180910390fd5b8181036000808573ffffffffffffffffffffffffffffffffffffffff1673ffffffffffffffffffffffffffffffffffffffff1681526020019081526020016000208190555081600260008282540392505081905550600073ffffffffffffffffffffffffffffffffffffffff168373ffffffffffffffffffffffffffffffffffffffff167fddf252ad1be2c89b69c2b068fc378daa952ba7f163c4a11628f55a4df523b3ef846040516117219190612479565b60405180910390a3611735836000846117c4565b505050565b61174482826109f7565b6117bb57611751816117c9565b61175f8360001c60206117f6565b604051602001611770929190612267565b6040516020818303038152906040526040517f08c379a00000000000000000000000000000000000000000000000000000000081526004016117b291906122d7565b60405180910390fd5b5050565b505050565b505050565b60606117ef8273ffffffffffffffffffffffffffffffffffffffff16601460ff166117f6565b9050919050565b606060006002836002611809919061252c565b61181391906124d6565b67ffffffffffffffff811115611852577f4e487b7100000000000000000000000000000000000000000000000000000000600052604160045260246000fd5b6040519080825280601f01601f1916602001820160405280156118845781602001600182028036833780820191505090505b5090507f3000000000000000000000000000000000000000000000000000000000000000816000815181106118e2577f4e487b7100000000000000000000000000000000000000000000000000000000600052603260045260246000fd5b60200101907effffffffffffffffffffffffffffffffffffffffffffffffffffffffffffff1916908160001a9053507f78000000000000000000000000000000000000000000000000000000000000008160018151811061196c577f4e487b7100000000000000000000000000000000000000000000000000000000600052603260045260246000fd5b60200101907effffffffffffffffffffffffffffffffffffffffffffffffffffffffffffff1916908160001a905350600060018460026119ac919061252c565b6119b691906124d6565b90505b6001811115611aa2577f3031323334353637383961626364656600000000000000000000000000000000600f861660108110611a1e577f4e487b7100000000000000000000000000000000000000000000000000000000600052603260045260246000fd5b1a60f81b828281518110611a5b577f4e487b7100000000000000000000000000000000000000000000000000000000600052603260045260246000fd5b60200101907effffffffffffffffffffffffffffffffffffffffffffffffffffffffffffff1916908160001a905350600485901c945080611a9b90612644565b90506119b9565b5060008414611ae6576040517f08c379a0000000000000000000000000000000000000000000000000000000008152600401611add906122f9565b60405180910390fd5b8091505092915050565b600081359050611aff8161270f565b92915050565b600081359050611b1481612726565b92915050565b600081359050611b298161273d565b92915050565b600081359050611b3e81612754565b92915050565b600060208284031215611b5657600080fd5b6000611b6484828501611af0565b91505092915050565b60008060408385031215611b8057600080fd5b6000611b8e85828601611af0565b9250506020611b9f85828601611af0565b9150509250929050565b600080600060608486031215611bbe57600080fd5b6000611bcc86828701611af0565b9350506020611bdd86828701611af0565b9250506040611bee86828701611b2f565b9150509250925092565b60008060408385031215611c0b57600080fd5b6000611c1985828601611af0565b9250506020611c2a85828601611b2f565b9150509250929050565b600060208284031215611c4657600080fd5b6000611c5484828501611b05565b91505092915050565b60008060408385031215611c7057600080fd5b6000611c7e85828601611b05565b9250506020611c8f85828601611af0565b9150509250929050565b600060208284031215611cab57600080fd5b6000611cb984828501611b1a565b91505092915050565b600060208284031215611cd457600080fd5b6000611ce284828501611b2f565b91505092915050565b611cf481612598565b82525050565b611d03816125a4565b82525050565b6000611d14826124af565b611d1e81856124ba565b9350611d2e818560208601612611565b611d37816126fe565b840191505092915050565b6000611d4d826124af565b611d5781856124cb565b9350611d67818560208601612611565b80840191505092915050565b6000611d806020836124ba565b91507f537472696e67733a20686578206c656e67746820696e73756666696369656e746000830152602082019050919050565b6000611dc06023836124ba565b91507f45524332303a207472616e7366657220746f20746865207a65726f206164647260008301527f65737300000000000000000000000000000000000000000000000000000000006020830152604082019050919050565b6000611e266022836124ba565b91507f45524332303a206275726e20616d6f756e7420657863656564732062616c616e60008301527f63650000000000000000000000000000000000000000000000000000000000006020830152604082019050919050565b6000611e8c6022836124ba565b91507f45524332303a20617070726f766520746f20746865207a65726f20616464726560008301527f73730000000000000000000000000000000000000000000000000000000000006020830152604082019050919050565b6000611ef2601d836124ba565b91507f45524332303a20696e73756666696369656e7420616c6c6f77616e63650000006000830152602082019050919050565b6000611f326026836124ba565b91507f45524332303a207472616e7366657220616d6f756e742065786365656473206260008301527f616c616e636500000000000000000000000000000000000000000000000000006020830152604082019050919050565b6000611f986021836124ba565b91507f45524332303a206275726e2066726f6d20746865207a65726f2061646472657360008301527f73000000000000000000000000000000000000000000000000000000000000006020830152604082019050919050565b6000611ffe6025836124ba565b91507f45524332303a207472616e736665722066726f6d20746865207a65726f20616460008301527f64726573730000000000000000000000000000000000000000000000000000006020830152604082019050919050565b60006120646024836124ba565b91507f45524332303a20617070726f76652066726f6d20746865207a65726f2061646460008301527f72657373000000000000000000000000000000000000000000000000000000006020830152604082019050919050565b60006120ca6017836124cb565b91507f416363657373436f6e74726f6c3a206163636f756e74200000000000000000006000830152601782019050919050565b600061210a6025836124ba565b91507f45524332303a2064656372656173656420616c6c6f77616e63652062656c6f7760008301527f207a65726f0000000000000000000000000000000000000000000000000000006020830152604082019050919050565b60006121706011836124cb565b91507f206973206d697373696e6720726f6c65200000000000000000000000000000006000830152601182019050919050565b60006121b0602f836124ba565b91507f416363657373436f6e74726f6c3a2063616e206f6e6c792072656e6f756e636560008301527f20726f6c657320666f722073656c6600000000000000000000000000000000006020830152604082019050919050565b6000612216601f836124ba565b91507f45524332303a206d696e7420746f20746865207a65726f2061646472657373006000830152602082019050919050565b612252816125fa565b82525050565b61226181612604565b82525050565b6000612272826120bd565b915061227e8285611d42565b915061228982612163565b91506122958284611d42565b91508190509392505050565b60006020820190506122b66000830184611ceb565b92915050565b60006020820190506122d16000830184611cfa565b92915050565b600060208201905081810360008301526122f18184611d09565b905092915050565b6000602082019050818103600083015261231281611d73565b9050919050565b6000602082019050818103600083015261233281611db3565b9050919050565b6000602082019050818103600083015261235281611e19565b9050919050565b6000602082019050818103600083015261237281611e7f565b9050919050565b6000602082019050818103600083015261239281611ee5565b9050919050565b600060208201905081810360008301526123b281611f25565b9050919050565b600060208201905081810360008301526123d281611f8b565b9050919050565b600060208201905081810360008301526123f281611ff1565b9050919050565b6000602082019050818103600083015261241281612057565b9050919050565b60006020820190508181036000830152612432816120fd565b9050919050565b60006020820190508181036000830152612452816121a3565b9050919050565b6000602082019050818103600083015261247281612209565b9050919050565b600060208201905061248e6000830184612249565b92915050565b60006020820190506124a96000830184612258565b92915050565b600081519050919050565b600082825260208201905092915050565b600081905092915050565b60006124e1826125fa565b91506124ec836125fa565b9250827fffffffffffffffffffffffffffffffffffffffffffffffffffffffffffffffff03821115612521576125206126a0565b5b828201905092915050565b6000612537826125fa565b9150612542836125fa565b9250817fffffffffffffffffffffffffffffffffffffffffffffffffffffffffffffffff048311821515161561257b5761257a6126a0565b5b828202905092915050565b6000612591826125da565b9050919050565b60008115159050919050565b6000819050919050565b60007fffffffff0000000000000000000000000000000000000000000000000000000082169050919050565b600073ffffffffffffffffffffffffffffffffffffffff82169050919050565b6000819050919050565b600060ff82169050919050565b60005b8381101561262f578082015181840152602081019050612614565b8381111561263e576000848401525b50505050565b600061264f826125fa565b91506000821415612663576126626126a0565b5b600182039050919050565b6000600282049050600182168061268657607f821691505b6020821081141561269a576126996126cf565b5b50919050565b7f4e487b7100000000000000000000000000000000000000000000000000000000600052601160045260246000fd5b7f4e487b7100000000000000000000000000000000000000000000000000000000600052602260045260246000fd5b6000601f19601f8301169050919050565b61271881612586565b811461272357600080fd5b50565b61272f816125a4565b811461273a57600080fd5b50565b612746816125ae565b811461275157600080fd5b50565b61275d816125fa565b811461276857600080fd5b5056fea2646970667358221220df1a7148ecc53386cdfdf311b92f10c84193046d69009f08ea2f855b3aaf628a64736f6c63430008000033",
  "immutableReferences": {},
  "source": "// SPDX-License-Identifier: MIT\npragma solidity >=0.4.22 <0.9.0;\n\nimport \"@openzeppelin/contracts/token/ERC20/ERC20.sol\";\nimport \"@openzeppelin/contracts/token/ERC20/extensions/ERC20Burnable.sol\";\nimport \"@openzeppelin/contracts/access/AccessControl.sol\";\n\ncontract CarbonCredits is ERC20, ERC20Burnable, AccessControl{\n    bytes32 public constant MINTER_ROLE = keccak256(\"MINTER_ROLE\");\n    mapping (address => uint256) public burnAmounts;\n\n    constructor() ERC20(\"CarbonCredits\", \"CC\") {\n        _grantRole(DEFAULT_ADMIN_ROLE, msg.sender);\n        _grantRole(MINTER_ROLE, msg.sender);\n    }\n\n    function mint(address to, uint256 amount) public onlyRole(MINTER_ROLE) {\n        _mint(to, amount);\n    }\n\n    function burnToken(uint256 amount) public {\n        _burn(msg.sender, amount);\n        burnAmounts[msg.sender] += amount;\n    }\n\n    function getBurnAmount(address check) public view returns(uint256) {\n        return burnAmounts[check];\n    }\n\n    function addMinter(address _member) public onlyRole(DEFAULT_ADMIN_ROLE) {\n        _grantRole(MINTER_ROLE, _member);\n    }\n\n    function removeMinter(address _member) public onlyRole(DEFAULT_ADMIN_ROLE) {\n        _revokeRole(MINTER_ROLE, _member);\n    }\n\n    function addAdmin(address _member) public onlyRole(DEFAULT_ADMIN_ROLE) {\n        _grantRole(DEFAULT_ADMIN_ROLE, _member);\n    }\n\n    function removeAdmin(address _member) public onlyRole(DEFAULT_ADMIN_ROLE) {\n        _revokeRole(DEFAULT_ADMIN_ROLE, _member);\n    }\n}\n",
  "sourcePath": "C:\\Users\\abhin\\Desktop\\chain\\contracts\\CarbonCredits.sol",
  "compiler": {
    "name": "solc",
    "version": "0.8.0+commit.c7dfd78e.Emscripten.clang"
  },
  "schemaVersion": "3.4.14",
  "updatedAt": "2023-07-04T13:40:27.880Z",
  "devdoc": {
    "kind": "dev",
    "methods": {
      "allowance(address,address)": {
        "details": "See {IERC20-allowance}."
      },
      "approve(address,uint256)": {
        "details": "See {IERC20-approve}. NOTE: If `amount` is the maximum `uint256`, the allowance is not updated on `transferFrom`. This is semantically equivalent to an infinite approval. Requirements: - `spender` cannot be the zero address."
      },
      "balanceOf(address)": {
        "details": "See {IERC20-balanceOf}."
      },
      "burn(uint256)": {
        "details": "Destroys `amount` tokens from the caller. See {ERC20-_burn}."
      },
      "burnFrom(address,uint256)": {
        "details": "Destroys `amount` tokens from `account`, deducting from the caller's allowance. See {ERC20-_burn} and {ERC20-allowance}. Requirements: - the caller must have allowance for ``accounts``'s tokens of at least `amount`."
      },
      "decimals()": {
        "details": "Returns the number of decimals used to get its user representation. For example, if `decimals` equals `2`, a balance of `505` tokens should be displayed to a user as `5.05` (`505 / 10 ** 2`). Tokens usually opt for a value of 18, imitating the relationship between Ether and Wei. This is the default value returned by this function, unless it's overridden. NOTE: This information is only used for _display_ purposes: it in no way affects any of the arithmetic of the contract, including {IERC20-balanceOf} and {IERC20-transfer}."
      },
      "decreaseAllowance(address,uint256)": {
        "details": "Atomically decreases the allowance granted to `spender` by the caller. This is an alternative to {approve} that can be used as a mitigation for problems described in {IERC20-approve}. Emits an {Approval} event indicating the updated allowance. Requirements: - `spender` cannot be the zero address. - `spender` must have allowance for the caller of at least `subtractedValue`."
      },
      "getRoleAdmin(bytes32)": {
        "details": "Returns the admin role that controls `role`. See {grantRole} and {revokeRole}. To change a role's admin, use {_setRoleAdmin}."
      },
      "grantRole(bytes32,address)": {
        "details": "Grants `role` to `account`. If `account` had not been already granted `role`, emits a {RoleGranted} event. Requirements: - the caller must have ``role``'s admin role. May emit a {RoleGranted} event."
      },
      "hasRole(bytes32,address)": {
        "details": "Returns `true` if `account` has been granted `role`."
      },
      "increaseAllowance(address,uint256)": {
        "details": "Atomically increases the allowance granted to `spender` by the caller. This is an alternative to {approve} that can be used as a mitigation for problems described in {IERC20-approve}. Emits an {Approval} event indicating the updated allowance. Requirements: - `spender` cannot be the zero address."
      },
      "name()": {
        "details": "Returns the name of the token."
      },
      "renounceRole(bytes32,address)": {
        "details": "Revokes `role` from the calling account. Roles are often managed via {grantRole} and {revokeRole}: this function's purpose is to provide a mechanism for accounts to lose their privileges if they are compromised (such as when a trusted device is misplaced). If the calling account had been revoked `role`, emits a {RoleRevoked} event. Requirements: - the caller must be `account`. May emit a {RoleRevoked} event."
      },
      "revokeRole(bytes32,address)": {
        "details": "Revokes `role` from `account`. If `account` had been granted `role`, emits a {RoleRevoked} event. Requirements: - the caller must have ``role``'s admin role. May emit a {RoleRevoked} event."
      },
      "supportsInterface(bytes4)": {
        "details": "See {IERC165-supportsInterface}."
      },
      "symbol()": {
        "details": "Returns the symbol of the token, usually a shorter version of the name."
      },
      "totalSupply()": {
        "details": "See {IERC20-totalSupply}."
      },
      "transfer(address,uint256)": {
        "details": "See {IERC20-transfer}. Requirements: - `to` cannot be the zero address. - the caller must have a balance of at least `amount`."
      },
      "transferFrom(address,address,uint256)": {
        "details": "See {IERC20-transferFrom}. Emits an {Approval} event indicating the updated allowance. This is not required by the EIP. See the note at the beginning of {ERC20}. NOTE: Does not update the allowance if the current allowance is the maximum `uint256`. Requirements: - `from` and `to` cannot be the zero address. - `from` must have a balance of at least `amount`. - the caller must have allowance for ``from``'s tokens of at least `amount`."
      }
    },
    "version": 1
  },
  "userdoc": {
    "kind": "user",
    "methods": {},
    "version": 1
  }
}